S00C00006770696F2E7372656369
S113000033C0000039C0000037C0000035C0000014
S113001033C0000031C000002FC000002DC000001C
S11300202BC0000029C0000027C0000025C000002C
S113003023C0000021C000001FC000001DC000003C
S11300401BC0000019C0000017C0000015C000004C
S113005013C0000011C000000FC000000DC000005C
S11300600BC0000009C0000011241FBECFEFD8E070
S1130070DEBFCDBF4FD07AC0C3CFFC01408121E0A9
S113008030E002C0220F331F6A95E2F7242B20834D
S11300900895FC01808121E030E002C0220F331F6B
S11300A06A95E2F7922F90958923808380818181DC
S11300B0282B21830895FC01908121E030E002C0C7
S11300C0220F331F6A95E2F7209529232083089590
S11300D0FC01408121E030E002C0220F331F6A9509
S11300E0E2F7242B20830895FC01408121E030E0D5
S11300F002C0220F331F6A95E2F724272083089554
S1130100FC01808190E002C0959587956A95E2F79D
S11301108170089565E084E290E0AFDF65E085E2F8
S113012090E0C9DF60E087E290E0A7DF60E088E26A
S113013090E0CEDF60E08AE290E0ABDF2FEF89E66B
S113014098E1215080409040E1F700C0000060E059
S113015089E290E0D5DF8111F1CF65E085E290E09E
S1130160C3DF60E088E290E0BFDFE8CFF894FFCF20
S9030000FC
