S00C0000756172742E737265635C
S11300000C9434000C9451000C9451000C94510045
S11300100C9451000C9451000C9451000C94510018
S11300200C9451000C9451000C9451000C94510008
S11300300C9451000C9432010C9451000C94510016
S11300400C9451000C9451000C9425020C9453020E
S11300500C9451000C9447010C9451000C945100E1
S11300600C9451000C94510011241FBECFEFD8E022
S1130070DEBFCDBF11E0A0E0B1E0E2EEF5E002C0EA
S113008005900D92AE34B107D9F721E0AEE4B1E0AA
S113009001C01D92A339B207E1F70E94F6000C9447
S11300A0EF020C940000299A85E08A95F1F700008C
S11300B029980895CF93C82F662311F0289A01C078
S11300C02898549A559A569A579A5F985E985D98CC
S11300D05C98CC230CF45F9AC6FD5E9AC5FD5D9ACC
S11300E0C4FD5C9A0E9453005F985E985D985C988A
S11300F0C3FD5F9AC2FD5E9AC1FD5D9AC0FD5C9A24
S11301000E9453005C9A5D9A5E9A5F9A87EB9BE02B
S11301100197F1F700C00000CF91089560E00E94BC
S11301205A000895611104C080580E948E000895F9
S113013080540E948E00089581E00E948E000895EC
S113014061E00E945A000895CF93DF93EC01219659
S1130150FC018081882329F00E94A00089918111EB
S1130160FBCFDF91CF910895CF93C82F209A559A52
S1130170219A549A559A569A579A8FEF99EF019764
S1130180F1F700C000005D9A5C9A0E9453008FE171
S11301909EE40197F1F700C000000E9453008FEF26
S11301A090E00197F1F700C000000E9453008FEF28
S11301B090E00197F1F700C000005C980E945300A2
S11301C08FEF90E00197F1F700C0000088E20E94F1
S11301D08E0088E00E948E000E949C0086E00E94AF
S11301E08E008C2F0E948E00CF9108958CE00E9487
S11301F0B40060E081E00E94920080E091E00E94FF
S1130200A40061E083E00E94920087E091E00E94F4
S1130210A400ECE7F0E080818064808380818F77A4
S113022080838081807F8083EAE7F0E0808180683A
S11302308083808188608083808187608083E1E817
S1130240F0E080818B7F8083808183608083EFE610
S1130250F0E080818160808387E690E00E947D02E7
S11302607894FFCF1F920F920FB60F9211248F93A1
S1130270EF93FF93EAE7F0E0808180648083FF914D
S1130280EF918F910F900FBE0F901F9018951F92B2
S11302900F920FB60F9211240F931F932F933F9336
S11302A04F935F936F937F938F939F93AF93BF937A
S11302B0EF93FF93CF93DF9300D000D0CDB7DEB799
S11302C080E290E29A8389839C838B8300917800F7
S11302D0109179004AE0BE016F5F7F4FC8010E9410
S11302E0BA0260E088E00E9492008AE291E00E94F3
S11302F0A40060E088E00E949200CE0101960E9472
S1130300A4000C3B82E0180760F48CE091E00E94AA
S1130310AB02CE0101960E94AB0282E291E00E9400
S1130320AB0240E1BE016F5F7F4FC8010E94BA0279
S113033060E08DE00E9492008AE291E00E94A400B5
S113034060E08DE00E949200CE0101960E94A4001C
S113035000FD09C061E08FE00E94920084E291E018
S11303600E94A40008C061E08FE00E94920086E22F
S113037091E00E94A40061E088E00E94920088E27B
S113038091E00E94A400083F83E0180748F061E070
S113039088E00E9492008FE291E00E94A4003CC099
S11303A00115110549F461E088E00E94920084E39C
S11303B091E00E94A40030C00536110549F461E0C3
S11303C088E00E9492008AE391E00E94A40024C085
S11303D0053F110549F461E088E00E9492008DE335
S11303E091E00E94A40018C0023981E0180749F482
S11303F061E088E00E94920082E491E00E94A400FF
S11304000BC00A38124041F461E088E00E94920077
S113041087E491E00E94A4000F900F900F900F903A
S1130420DF91CF91FF91EF91BF91AF919F918F9108
S11304307F916F915F914F913F912F911F910F91F8
S11304400F900FBE0F901F9018951F920F920FB62A
S11304500F9211242F938F939F93EF93FF93809187
S1130460C0002091C6008C71E0915001EF5FEF71E4
S113047090914F01E91739F0E0935001F0E0ED5A03
S1130480FE4F208301C082E090914E01892B80931E
S11304904E01FF91EF919F918F912F910F900FBE7D
S11304A00F901F9018951F920F920FB60F92112460
S11304B08F939F93EF93FF939091520180915101F9
S11304C0981769F0E0915101EF5FEF71E0935101EA
S11304D0F0E0ED58FE4F80818093C60005C0E1EC4A
S11304E0F0E080818F7D8083FF91EF919F918F91C8
S11304F00F900FBE0F901F901895109252011092FA
S113050051011092500110924F0199231CF422E0E2
S11305102093C00090789093C5008093C40088E92C
S11305208093C10086E08093C20008952091520117
S11305302F5F2F71909151012917E1F3E22FF0E021
S1130540ED58FE4F808320935201E1ECF0E080816E
S1130550806280830895CF93DF93EC0188818823A0
S113056031F021960E94960289918111FBCFDF918F
S1130570CF910895BB274A3031F4992322F4BDE288
S1130580909581959F4F0C94C602BB27FB0155277C
S1130590AA27880F991FAA1FA41710F0A41B8395DC
S11305A05051B9F7A05DAA3308F0A95DA193009753
S11305B079F7B111B1931192CB010C94DF02DC01F4
S11305C0FC01672F71917723E1F7329704C07C9186
S11305D06D9370836291AE17BF07C8F30895F894C2
S10505E0FFCF47
S11305E276616C75653A006B65793A004144432043
S11305F276616C756520696E20646563696D616CF2
S11306023A000A0031003000202020202020004E31
S11306126F6E6500526967687400557000446F77A5
S11106226E004C6566740053656C656374006D
S9030000FC
