S00B00006C63642E73726563E6
S11300000C9434000C9451000C9451000C94510045
S11300100C9451000C9451000C9451000C94510018
S11300200C9451000C9434010C9451000C94510024
S11300300C9451000C9451000C9451000C945100F8
S11300400C9410020C9451000C9451000C94510027
S11300500C9451000C9451000C9451000C945100D8
S11300600C9451000C94510011241FBECFEFD8E022
S1130070DEBFCDBF11E0A0E0B1E0E2E3F5E002C0F5
S113008005900D92A634B107D9F721E0A6E4B1E0BA
S113009001C01D92AC34B207E1F70E94FA000C943F
S11300A097020C940000299A85E08A95F1F70000E4
S11300B029980895CF93C82F662311F0289A01C078
S11300C02898549A559A569A579A5F985E985D98CC
S11300D05C98CC230CF45F9AC6FD5E9AC5FD5D9ACC
S11300E0C4FD5C9A0E9453005F985E985D985C988A
S11300F0C3FD5F9AC2FD5E9AC1FD5D9AC0FD5C9A24
S11301000E9453005C9A5D9A5E9A5F9A87EB9BE02B
S11301100197F1F700C00000CF91089560E00E94BC
S11301205A00089561E00E945A000895611104C0C4
S113013080580E948E00089580540E948E00089575
S113014081E00E948E00089561E00E945A000895A3
S1130150CF93DF93EC012196FC018081882329F061
S11301600E94A40089918111FBCFDF91CF91089562
S1130170CF93C82F209A559A219A549A559A569AF1
S1130180579A8FEF99EF0197F1F700C000005D9A3D
S11301905C9A0E9453008FE19EE40197F1F700C03E
S11301A000000E9453008FEF90E00197F1F700C028
S11301B000000E9453008FEF90E00197F1F700C018
S11301C000005C980E9453008FEF90E00197F1F7D4
S11301D000C0000088E20E948E0088E00E948E0029
S11301E00E94A00086E00E948E008C2F0E948E0048
S11301F0CF9108958CE00E94B80080E40E948E00A4
S1130200C1E0D1E001E311E089910E949200C0179E
S1130210D107D1F780E80E948E0060E081E00E945F
S1130220960081E391E00E94A80061E08BE00E94C7
S1130230960089E391E00E94A800E1EBF0E0808160
S113024087608083E0E7F0E080818160808385B50A
S11302508C7F85BD85B5846085BDEEE6F0E0808148
S1130260816080837894FFCF1F920F920FB60F9214
S113027011242F933F934F935F936F937F938F93A7
S11302809F93AF93BF93EF93FF93CF93DF9300D0EC
S11302901F92CDB7DEB780E290E29A8389831B82F6
S11302A080914B018F5F853018F480934B01A2C07D
S11302B010924B0180914A018F5F8A3018F4809329
S11302C04A0187C010924A01809149018F5F80934F
S11302D049018A3008F45BC08C3308F446C010929C
S11302E0490160E085E00E94960087E391E00E9466
S11302F0A800809148018F5F809348018A30F0F014
S11303008C3350F01092480160E082E00E94960025
S113031087E391E00E94A800809148014AE0BE0171
S11303206F5F7F4F90E00E94620260E081E00E9474
S11303309600CE0101960E94A8000FC04AE0BE01BB
S11303406F5F7F4F90E00E94620260E082E00E9453
S11303509600CE0101960E94A80060E08BE00E9406
S1130360960081E491E00E94A800809149014AE04E
S1130370BE016F5F7F4F90E00E94620260E084E004
S11303800E949600CE0101960E94A8000FC04AE088
S1130390BE016F5F7F4F90E00E94620260E085E0E3
S11303A00E949600CE0101960E94A8008091490106
S11303B04AE0BE016F5F7F4F889FC00111240E94F5
S11303C0620260E08BE00E949600CE0101960E94DA
S11303D0A80080914A014AE0BE016F5F7F4F90E020
S11303E00E94620260E087E00E949600CE010196BE
S11303F00E94A8000F900F900F90DF91CF91FF9172
S1130400EF91BF91AF919F918F917F916F915F9188
S11304104F913F912F910F900FBE0F901F90189501
S11304201F920F920FB60F9211242F933F934F9365
S11304305F936F937F938F939F93AF93BF93EF9348
S1130440FF93809147018F5F863018F480934701B2
S113045028C010924701809146018F5F863018F4BE
S11304608093460115C081E080934601809100018C
S11304708F5F8A3018F4809300010AC081E0809372
S1130480000161E00E9496008BE391E00E94A800C5
S113049061E0809100010E949600809146010E94D3
S11304A0A400FF91EF91BF91AF919F918F917F91A4
S11304B06F915F914F913F912F910F900FBE0F90CD
S11304C01F901895BB274A3031F4992322F4BDE2DA
S11304D0909581959F4F0C946E02BB27FB01552785
S11304E0AA27880F991FAA1FA41710F0A41B83958D
S11304F05051B9F7A05DAA3308F0A95DA193009704
S113050079F7B111B1931192CB010C948702DC01FC
S1130510FC01672F71917723E1F7329704C07C9136
S11305206D9370836291AE17BF07C8F30895F89472
S1050530FFCFF7
S11305320100000000000000001010101010101044
S11305421018181818181818181C1C1C1C1C1C1C11
S11305521C1E1E1E1E1E1E1E1E1F1F1F1F1F1F1FB0
S11305621F30303A30302E3000630020202020200B
S1090572202020202000DF
S9030000FC
