S013000072616E67655F6D657465722E7372656388
S11300000C9434000C949F020C9451000C945100F5
S11300100C9451000C9451000C9451000C94510018
S11300200C9451000C94B8050C9451000C9451009C
S11300300C9451000C9424020C9451000C94510023
S11300400C9451000C9451000C9448060C947606C0
S11300500C9451000C9451000C9451000C945100D8
S11300600C9451000C94510011241FBECFEFD8E022
S1130070DEBFCDBF11E0A0E0B1E0E6E8F0E102C0F0
S113008005900D92A63EB107D9F722E0A6EEB1E0A5
S113009001C01D92AE32B207E1F70E944F010C94E9
S11300A041080C940000FC01408121E030E002C0D2
S11300B0220F331F6A95E2F7242B20830895FC0155
S11300C0808121E030E002C0220F331F6A95E2F7FD
S11300D0922F90958923808380818181282B21838D
S11300E00895FC01908121E030E002C0220F331F0B
S11300F06A95E2F72095292320830895FC01408125
S113010021E030E002C0220F331F6A95E2F7242B6E
S113011020830895FC01408121E030E002C0220FD9
S1130120331F6A95E2F7242720830895FC01808118
S113013090E002C0959587956A95E2F781700895DD
S1130140299A85E08A95F1F7000029980895CF93BC
S1130150C82F662311F0289A01C02898549A559AFA
S1130160569A579A5F985E985D985C98CC230CF4E5
S11301705F9AC6FD5E9AC5FD5D9AC4FD5C9A0E94B5
S1130180A0005F985E985D985C98C3FD5F9AC2FD7D
S11301905E9AC1FD5D9AC0FD5C9A0E94A0005C9AC3
S11301A05D9A5E9A5F9A87EB9BE00197F1F700C036
S11301B00000CF91089560E00E94A70008956111A6
S11301C004C080580E94DB000895613021F48054FB
S11301D00E94DB000895623021F48C560E94DB00FB
S11301E008958C520E94DB00089581E00E94DB0098
S11301F0089561E00E94A7000895CF93DF93EC0176
S11302002196FC018081882329F00E94F9008991BC
S11302108111FBCFDF91CF910895CF93C82F209AFE
S1130220559A219A549A559A569A579A8FEF99EF5C
S11302300197F1F700C000005D9A5C9A0E94A0004B
S11302408FE19EE40197F1F700C000000E94A00036
S11302508FEF90E00197F1F700C000000E94A0002A
S11302608FEF90E00197F1F700C000005C980E94C6
S1130270A0008FEF90E00197F1F700C0000088E242
S11302800E94DB0088E00E94DB000E94F50086E00B
S11302900E94DB008C2F0E94DB00CF91089562E066
S11302A084E290E00E94530063E084E290E00E94C4
S11302B0530064E084E290E00E94530062E08AE22A
S11302C090E00E945F0065E084E290E00E945300A9
S11302D065E085E290E00E94710061E08AE290E0CE
S11302E00E94530061E085E290E00E947E0064E099
S11302F085E290E00E94710063E085E290E00E9454
S1130300710062E085E290E00E94710060E087E2A3
S113031090E00E94530061E087E290E00E94530065
S113032062E087E290E00E94530063E087E290E09D
S11303300E94530064E087E290E00E94530065E06D
S113034087E290E00E94530066E087E290E00E941A
S1130350530060E08AE290E00E94530060E088E28B
S113036090E00E94710061E088E290E00E947100D8
S113037062E088E290E00E94710063E088E290E02D
S11303800E94710064E088E290E00E94710065E0E0
S113039088E290E00E94710066E088E290E00E94AA
S11303A0710060E08BE290E00E9471002FEF81EE1B
S11303B094E0215080409040E1F700C000008CE0C0
S11303C00E940D0160E082E00E94DF0086E091E07F
S11303D00E94FD0061E083E00E94DF008DE091E077
S11303E00E94FD0062E081E00E94DF0083E191E071
S11303F00E94FD007894E1E8F0E080818B7F8083A7
S1130400808183608083EFE6F0E080818160808377
S1130410E1EBF0E080818B7F808380818360808347
S1130420E0E7F0E080818160808387E690E00E94CD
S1130430A0068BE191E00E94CE06E89AE9E6F0E09E
S1130440808183608083FFCF1F920F920FB60F923B
S113045011242F933F934F935F936F937F938F93C5
S11304609F93AF93BF93EF93FF938091E8018F5FC6
S11304708093E80161E08BE290E00E948A00809121
S1130480E8018130C1F464E085E290E00E947100EB
S113049085E38A95F1F7000064E085E290E00E942C
S11304A07E0085E38A95F1F7000064E085E290E040
S11304B00E94710033C08230C1F463E085E290E0B1
S11304C00E94710085E38A95F1F7000063E085E2FC
S11304D090E00E947E0085E38A95F1F7000063E0D6
S11304E085E290E00E94710019C08330B9F462E0A3
S11304F085E290E00E94710085E38A95F1F700009F
S113050062E085E290E00E947E0085E38A95F1F73F
S1130510000062E085E290E00E947100FF91EF919B
S1130520BF91AF919F918F917F916F915F914F9107
S11305303F912F910F900FBE0F901F9018951F920F
S11305400F920FB60F9211242F933F934F935F9303
S11305506F937F938F939F93AF93BF93EF93FF9387
S1130560CF93DF93CDB7DEB72897DEBFCDBF09C0E9
S11305708091E6019091E70101969093E7018093C1
S1130580E60162E089E290E00E9496008111F0CFDA
S11305906091E6017091E70180E090E00E947E079F
S11305A028E431EE4CEA51E40E94DD060E944F0734
S11305B07093E7016093E6018091E801813009F0CE
S11305C08BC060E088E00E94DF008BE491E00E9431
S11305D0FD008091E6019091E701909305018093DD
S11305E00401813921E0920768F084E591E00E94DA
S11305F0CE0660E089E00E94DF0088E691E00E9478
S1130600FD0099C28330910568F48EE691E00E9462
S1130610CE0660E088E00E94DF0080E891E00E945E
S1130620FD0089C24AE0BE016F5F7F4F0E940C0843
S113063086E091E00E94CE06CE0101960E94CE068D
S113064087E891E00E94CE0689E491E00E94CE06FC
S11306508091E6019091E7018A30910588F460E089
S11306608AE00E94DF00CE0101960E94FD0060E056
S11306708CE00E94DF0088E891E00E94FD005BC2EC
S11306809C012A5031092A35310588F460E089E05B
S11306900E94DF00CE0101960E94FD0060E08CE024
S11306A00E94DF0088E891E00E94FD0044C2843685
S11306B0910508F440C260E088E00E94DF00CE01AA
S11306C001960E94FD0060E08CE00E94DF0088E853
S11306D091E00E94FD002FC2823009F09EC161E0CA
S11306E088E00E94DF008BE491E00E94FD0080918D
S11306F0E6019091E701909303018093020181390F
S113070021E0920768F08BE891E00E94CE0661E058
S113071089E00E94DF0088E691E00E94FD0068C045
S11307208330910568F481EA91E00E94CE0661E08D
S113073088E00E94DF0080E891E00E94FD0058C03C
S11307404AE0BE016F5F7F4F0E940C0885EB91E089
S11307500E94CE06CE0101960E94CE0687E891E063
S11307600E94CE0689E491E00E94CE068091E601C3
S11307709091E7018A30910588F461E08AE00E9453
S1130780DF00CE0101960E94FD0061E08CE00E9432
S1130790DF0088E891E00E94FD002AC09C012A50F5
S11307A031092A35310588F461E089E00E94DF00CF
S11307B0CE0101960E94FD0061E08CE00E94DF0002
S11307C088E891E00E94FD0013C08436910580F012
S11307D061E088E00E94DF00CE0101960E94FD00E6
S11307E061E08CE00E94DF0088E891E00E94FD0057
S11307F060E088E290E00E94710061E088E290E0AD
S11308000E94710062E088E290E00E94710063E05F
S113081088E290E00E94710064E088E290E00E9427
S1130820710065E088E290E00E94710066E088E271
S113083090E00E94710060E08BE290E00E94710001
S11308408091E6019091E7019C012D5231402436BC
S1130850310530F460E088E290E00E947E006BC1D4
S11308609C01225E31092B34310558F460E088E2A2
S113087090E00E947E0061E088E290E00E947E00A9
S11308805AC19C01215A31092134310580F460E0B8
S113089088E290E00E947E0061E088E290E00E949D
S11308A07E0062E088E290E00E947E0044C19C01E8
S11308B02F56310922333105A8F460E088E290E034
S11308C00E947E0061E088E290E00E947E0062E087
S11308D088E290E00E947E0063E088E290E00E945B
S11308E07E0029C19C012754310928323105D0F4F6
S11308F060E088E290E00E947E0061E088E290E09F
S11309000E947E0062E088E290E00E947E0063E044
S113091088E290E00E947E0064E088E290E00E9419
S11309207E0009C19C01295231092E313105F8F4A8
S113093060E088E290E00E947E0061E088E290E05E
S11309400E947E0062E088E290E00E947E0063E004
S113095088E290E00E947E0064E088E290E00E94D9
S11309607E0065E088E290E00E947E00E4C09C0185
S1130970205131092931310520F560E088E290E009
S11309800E947E0061E088E290E00E947E0062E0C6
S113099088E290E00E947E0063E088E290E00E949A
S11309A07E0064E088E290E00E947E0065E088E2D8
S11309B090E00E947E0066E088E290E00E947E0063
S11309C0BAC0409708F0B7C060E088E290E00E94A7
S11309D07E0061E088E290E00E947E0062E088E2AE
S11309E090E00E947E0063E088E290E00E947E0036
S11309F064E088E290E00E947E0065E088E290E096
S1130A000E947E0066E088E290E00E947E0060E042
S1130A108BE290E00E947E008EC0833009F08BC090
S1130A201092E80162E088E00E94DF008BE491E02C
S1130A300E94FD008091E6019091E70190930101ED
S1130A4080930001813921E0920768F08EEB91E0F8
S1130A500E94CE0662E089E00E94DF0088E691E011
S1130A600E94FD0068C08330910568F483ED91E035
S1130A700E94CE0662E088E00E94DF0080E891E0F8
S1130A800E94FD0058C04AE0BE016F5F7F4F0E9484
S1130A900C0883E191E00E94CE06CE0101960E94EB
S1130AA0CE0687E891E00E94CE0689E491E00E9498
S1130AB0CE068091E6019091E7018A30910588F491
S1130AC062E08AE00E94DF00CE0101960E94FD00F0
S1130AD062E08CE00E94DF0088E891E00E94FD0063
S1130AE02AC09C012A5031092A35310588F462E074
S1130AF089E00E94DF00CE0101960E94FD0062E0C1
S1130B008CE00E94DF0088E891E00E94FD0013C0A1
S1130B108436910580F062E088E00E94DF00CE0117
S1130B2001960E94FD0062E08CE00E94DF0088E8EC
S1130B3091E00E94FD001092E7011092E6012896D0
S1130B400FB6F894DEBF0FBECDBFDF91CF91FF91FA
S1130B50EF91BF91AF919F918F917F916F915F9131
S1130B604F913F912F910F900FBE0F901F901895AA
S1130B701F920F920FB60F9211242F933F934F930E
S1130B805F936F937F938F939F93AF93BF93EF93F1
S1130B90FF9340910401509105012091020130918D
S1130BA00301609100017091010191E04F31510501
S1130BB008F090E081E02F31310508F080E0892BC6
S1130BC039F481E06F31710508F080E0882371F019
S1130BD0E1EBF0E080818B7F808380818360808380
S1130BE065E085E290E00E948A0041C091E04734CC
S1130BF0510508F090E081E02734310508F080E0E9
S1130C00892B39F481E06734710508F080E088238A
S1130C1071F0E1EBF0E080818C7F808380818460DF
S1130C20808365E085E290E00E948A0020C091E024
S1130C30493C510508F090E081E0293C310508F079
S1130C4080E0892B39F481E0693C710508F080E08B
S1130C50882369F0E1EBF0E080818D7F80838081DF
S1130C608560808365E085E290E00E948A00FF91C0
S1130C70EF91BF91AF919F918F917F916F915F9110
S1130C804F913F912F910F900FBE0F901F90189589
S1130C901F920F920FB60F9211242F938F939F934D
S1130CA0EF93FF938091C0002091C6008C71E09176
S1130CB0EB01EF5FEF719091EA01E91739F0E093EE
S1130CC0EB01F0E0E251FE4F208301C082E09091FD
S1130CD0E901892B8093E901FF91EF919F918F9115
S1130CE02F910F900FBE0F901F9018951F920F9287
S1130CF00FB60F9211248F939F93EF93FF939091CC
S1130D00ED018091EC01981769F0E091EC01EF5F3F
S1130D10EF71E093EC01F0E0E25FFD4F808180939E
S1130D20C60005C0E1ECF0E080818F7D8083FF91F7
S1130D30EF919F918F910F900FBE0F901F90189578
S1130D401092ED011092EC011092EB011092EA0165
S1130D5099231CF422E02093C00090789093C5005E
S1130D608093C40088E98093C10086E08093C20028
S1130D7008952091ED012F5F2F719091EC012917B7
S1130D80E1F3E22FF0E0E25FFD4F80832093ED0179
S1130D90E1ECF0E08081806280830895CF93DF935B
S1130DA0EC018881882331F021960E94B90689914B
S1130DB08111FBCFDF91CF9108950E94F1060C942D
S1130DC0D2070E94CB0758F00E94C40740F029F4D0
S1130DD05F3F29F00C94BB0751110C9406080C9446
S1130DE0C1070E94E30768F39923B1F3552391F3F4
S1130DF0951B550BBB27AA2762177307840738F086
S1130E009F5F5F4F220F331F441FAA1FA9F335D0E2
S1130E100E2E3AF0E0E832D091505040E695001C96
S1130E20CAF72BD0FE2F29D0660F771F881FBB1F50
S1130E30261737074807AB07B0E809F0BB0B802D2E
S1130E40BF01FF2793585F4F3AF09E3F510578F05A
S1130E500C94BB070C9406085F3FE4F3983ED4F36C
S1130E60869577956795B795F7959F5FC9F7880F2E
S1130E70911D9695879597F90895E1E0660F771F80
S1130E80881FBB1F621773078407BA0720F0621B11
S1130E90730B840BBA0BEE1F88F7E09508950E943C
S1130EA0EB0788F09F5798F0B92F9927B751B0F006
S1130EB0E1F0660F771F881F991F1AF0BA95C9F7DA
S1130EC014C0B13091F00E940508B1E008950C946B
S1130ED00508672F782F8827B85F39F0B93FCCF31E
S1130EE0869577956795B395D9F73EF49095809557
S1130EF0709561957F4F8F4F9F4F0895E89409C077
S1130F0097FB3EF490958095709561957F4F8F4F38
S1130F109F4F9923A9F0F92F96E9BB279395F6954E
S1130F20879577956795B795F111F8CFFAF4BB0FCC
S1130F3011F460FF1BC06F5F7F4F8F4F9F4F16C030
S1130F40882311F096E911C0772321F09EE8872FBA
S1130F50762F05C0662371F096E8862F70E060E076
S1130F602AF09A95660F771F881FDAF7880F9695EF
S1130F70879597F9089597F99F6780E870E060E096
S1130F8008959FEF80EC089500240A94161617061E
S1130F9018060906089500240A9412161306140666
S1130FA005060895092E0394000C11F4882352F0C9
S1130FB0BB0F40F4BF2B11F460FF04C06F5F7F4F81
S1130FC08F4F9F4F089557FD9058440F551F59F068
S1130FD05F3F71F04795880F97FB991F61F09F3F22
S1130FE079F087950895121613061406551FF2CF4B
S1130FF04695F1DF08C0161617061806991FF1CF9B
S113100086957105610508940895E894BB276627C1
S11310107727CB0197F90895BB274A3031F49923F8
S113102022F4BDE2909581959F4F0C941808BB273C
S1131030FB015527AA27880F991FAA1FA41710F090
S1131040A41B83955051B9F7A05DAA3308F0A95D9C
S1131050A193009779F7B111B1931192CB010C943C
S11310603108DC01FC01672F71917723E1F7329796
S113107004C07C916D9370836291AE17BF07C8F36F
S10910800895F894FFCF6F
S1131086F401F401F4014C6566743A20004D696478
S11310963A200052696768743A20000D0A2D2D2DF6
S11310A62D2D52414E47454D455445522D2D2D2D3E
S11310B62D2D0A2D2D5061726B696E672D61737328
S11310C6697374616E742D2D0D0A00202020202072
S11310D6202020004C6566743A206E6F206F627380
S11310E67461636C65200A00636C656172004C650B
S11310F666743A20746F20636C6F736521200A004E
S1131106636C6F7365210020636D004D6964646CC4
S1131116653A206E6F206F62737461636C65200A92
S1131126004D6964646C653A20746F20636C6F7358
S11311366521200A004D6964646C653A2000526991
S11311466768743A206E6F206F62737461636C65AE
S1131156200A0052696768743A20746F20636C6FC2
S1091166736521200A005C
S9030000FC
