S00D000074696D65722E73726563F6
S11300000C9434000C943E000C943E000C943E007E
S11300100C943E000C943E000C943E000C943E0064
S11300200C943E000C9444010C943E000C943E004D
S11300300C943E000C941D010C943E000C943E0064
S11300400C94F6000C943E000C943E000C943E007C
S11300500C943E000C943E000C943E000C943E0024
S11300600C943E000C943E0011241FBECFEFD8E048
S1130070DEBFCDBF0E948D000C946B010C94000078
S1130080FC01408121E030E002C0220F331F6A9559
S1130090E2F7242B20830895FC01808121E030E0E5
S11300A002C0220F331F6A95E2F7922F909589239D
S11300B0808380818181282B21830895FC01908194
S11300C021E030E002C0220F331F6A95E2F7209549
S11300D0292320830895FC01408121E030E002C0FF
S11300E0220F331F6A95E2F7242B20830895FC0125
S11300F0408121E030E002C0220F331F6A95E2F70D
S1130100242720830895FC01808190E002C0959506
S113011087956A95E2F78170089565E084E290E03E
S11301200E94400065E085E290E00E945E0064E089
S113013084E290E00E94400064E085E290E00E9446
S11301405E0063E084E290E00E94400063E085E2A8
S113015090E00E945E0060E087E290E00E94400030
S113016060E088E290E00E946B0060E08AE290E048
S11301700E944C0085B58D7F85BD85B5856085BDA4
S1130180EEE6F0E0808181608083E1E8F0E0808148
S11301908B7F8083808183608083EFE6F0E08081C1
S11301A081608083E1EBF0E080818C7F80838081BB
S11301B084608083E0E7F0E08081816080837894CC
S11301C02FEF89E698E1215080409040E1F700C08C
S11301D0000060E089E290E00E9483008111F0CF8A
S11301E060E088E290E00E947700EACF1F920F92CD
S11301F00FB60F9211242F933F934F935F936F93F6
S11302007F938F939F93AF93BF93EF93FF9365E097
S113021085E290E00E947700FF91EF91BF91AF914A
S11302209F918F917F916F915F914F913F912F910A
S11302300F900FBE0F901F9018951F920F920FB63C
S11302400F9211242F933F934F935F936F937F9358
S11302508F939F93AF93BF93EF93FF9364E085E2F3
S113026090E00E947700FF91EF91BF91AF919F9131
S11302708F917F916F915F914F913F912F910F904B
S11302800FBE0F901F9018951F920F920FB60F92EA
S113029011242F933F934F935F936F937F938F9387
S11302A09F93AF93BF93EF93FF9363E085E290E056
S11302B00E947700FF91EF91BF91AF919F918F9131
S11302C07F916F915F914F913F912F910F900FBE4E
S10D02D00F901F901895F894FFCFCB
S9030000FC
