S01100006C65642D626C696E6B2E73726563A1
S11300000C9434000C943E000C943E000C943E007E
S11300100C943E000C943E000C943E000C943E0064
S11300200C943E000C943E000C943E000C943E0054
S11300300C943E000C943E000C943E000C943E0044
S11300400C943E000C943E000C943E000C943E0034
S11300500C943E000C943E000C943E000C943E0024
S11300600C943E000C943E0011241FBECFEFD8E048
S1130070DEBFCDBF0E9440000C9424010C9400000C
S11300802D9880E295B1982795B92FEF33ED90E341
S1130090215030409040E1F700C0000095B198270E
S11300A095B92FEF35EA9EE0215030409040E1F7BA
S11300B000C0000095B1982795B92FEF35EA9EE06E
S11300C0215030409040E1F700C0000095B19827DE
S11300D095B92FEF35EA9EE0215030409040E1F78A
S11300E000C0000095B1982795B92FEF35EA9EE03E
S11300F0215030409040E1F700C0000095B19827AE
S113010095B92FEF33ED90E3215030409040E1F763
S113011000C0000095B1982795B92FEF35EA9EE00D
S1130120215030409040E1F700C0000095B198277D
S113013095B92FEF33ED90E3215030409040E1F733
S113014000C0000095B1982795B92FEF35EA9EE0DD
S1130150215030409040E1F700C0000095B198274D
S113016095B92FEF35EA9EE0215030409040E1F7F9
S113017000C0000095B1982795B92FEF35EA9EE0AD
S1130180215030409040E1F700C0000095B198271D
S113019095B92FEF35EA9EE0215030409040E1F7C9
S11301A000C0000095B1982795B92FEF33ED90E387
S11301B0215030409040E1F700C0000095B19827ED
S11301C095B92FEF35EA9EE0215030409040E1F799
S11301D000C0000095B1982795B92FEF33ED90E357
S11301E0215030409040E1F700C0000095B19827BD
S11301F095B92FEF35EA9EE0215030409040E1F769
S113020000C0000095B1982795B92FEF33ED90E326
S1130210215030409040E1F700C0000095B198278C
S113022095B92FEF35EA9EE0215030409040E1F738
S113023000C000002FEF3BE792E92150304090408E
S10F0240E1F700C000001ECFF894FFCFCF
S9030000FC
